{
  "_format": "hh-sol-artifact-1",
  "contractName": "DonationContract",
  "sourceName": "contracts/DonationContract.sol",
  "abi": [
    {
      "inputs": [],
      "stateMutability": "nonpayable",
      "type": "constructor"
    },
    {
      "inputs": [
        {
          "internalType": "address",
          "name": "sender",
          "type": "address"
        },
        {
          "internalType": "uint256",
          "name": "tokenId",
          "type": "uint256"
        },
        {
          "internalType": "address",
          "name": "owner",
          "type": "address"
        }
      ],
      "name": "ERC721IncorrectOwner",
      "type": "error"
    },
    {
      "inputs": [
        {
          "internalType": "address",
          "name": "operator",
          "type": "address"
        },
        {
          "internalType": "uint256",
          "name": "tokenId",
          "type": "uint256"
        }
      ],
      "name": "ERC721InsufficientApproval",
      "type": "error"
    },
    {
      "inputs": [
        {
          "internalType": "address",
          "name": "approver",
          "type": "address"
        }
      ],
      "name": "ERC721InvalidApprover",
      "type": "error"
    },
    {
      "inputs": [
        {
          "internalType": "address",
          "name": "operator",
          "type": "address"
        }
      ],
      "name": "ERC721InvalidOperator",
      "type": "error"
    },
    {
      "inputs": [
        {
          "internalType": "address",
          "name": "owner",
          "type": "address"
        }
      ],
      "name": "ERC721InvalidOwner",
      "type": "error"
    },
    {
      "inputs": [
        {
          "internalType": "address",
          "name": "receiver",
          "type": "address"
        }
      ],
      "name": "ERC721InvalidReceiver",
      "type": "error"
    },
    {
      "inputs": [
        {
          "internalType": "address",
          "name": "sender",
          "type": "address"
        }
      ],
      "name": "ERC721InvalidSender",
      "type": "error"
    },
    {
      "inputs": [
        {
          "internalType": "uint256",
          "name": "tokenId",
          "type": "uint256"
        }
      ],
      "name": "ERC721NonexistentToken",
      "type": "error"
    },
    {
      "inputs": [
        {
          "internalType": "address",
          "name": "owner",
          "type": "address"
        }
      ],
      "name": "OwnableInvalidOwner",
      "type": "error"
    },
    {
      "inputs": [
        {
          "internalType": "address",
          "name": "account",
          "type": "address"
        }
      ],
      "name": "OwnableUnauthorizedAccount",
      "type": "error"
    },
    {
      "inputs": [],
      "name": "ReentrancyGuardReentrantCall",
      "type": "error"
    },
    {
      "anonymous": false,
      "inputs": [
        {
          "indexed": true,
          "internalType": "address",
          "name": "owner",
          "type": "address"
        },
        {
          "indexed": true,
          "internalType": "address",
          "name": "approved",
          "type": "address"
        },
        {
          "indexed": true,
          "internalType": "uint256",
          "name": "tokenId",
          "type": "uint256"
        }
      ],
      "name": "Approval",
      "type": "event"
    },
    {
      "anonymous": false,
      "inputs": [
        {
          "indexed": true,
          "internalType": "address",
          "name": "owner",
          "type": "address"
        },
        {
          "indexed": true,
          "internalType": "address",
          "name": "operator",
          "type": "address"
        },
        {
          "indexed": false,
          "internalType": "bool",
          "name": "approved",
          "type": "bool"
        }
      ],
      "name": "ApprovalForAll",
      "type": "event"
    },
    {
      "anonymous": false,
      "inputs": [
        {
          "indexed": true,
          "internalType": "address",
          "name": "recipient",
          "type": "address"
        },
        {
          "indexed": false,
          "internalType": "uint256",
          "name": "amount",
          "type": "uint256"
        },
        {
          "indexed": false,
          "internalType": "uint256",
          "name": "timestamp",
          "type": "uint256"
        }
      ],
      "name": "ContractRevenueWithdrawalEvent",
      "type": "event"
    },
    {
      "anonymous": false,
      "inputs": [
        {
          "indexed": true,
          "internalType": "address",
          "name": "owner",
          "type": "address"
        },
        {
          "indexed": false,
          "internalType": "uint8",
          "name": "walletType",
          "type": "uint8"
        },
        {
          "indexed": false,
          "internalType": "uint8",
          "name": "operationalPercent",
          "type": "uint8"
        },
        {
          "indexed": false,
          "internalType": "uint256",
          "name": "timestamp",
          "type": "uint256"
        }
      ],
      "name": "CreateWalletEvent",
      "type": "event"
    },
    {
      "anonymous": false,
      "inputs": [
        {
          "indexed": true,
          "internalType": "address",
          "name": "owner",
          "type": "address"
        },
        {
          "indexed": false,
          "internalType": "uint256",
          "name": "amount",
          "type": "uint256"
        },
        {
          "indexed": false,
          "internalType": "uint256",
          "name": "timestamp",
          "type": "uint256"
        }
      ],
      "name": "DepositEvent",
      "type": "event"
    },
    {
      "anonymous": false,
      "inputs": [
        {
          "indexed": true,
          "internalType": "address",
          "name": "donor",
          "type": "address"
        },
        {
          "indexed": true,
          "internalType": "address",
          "name": "receiver",
          "type": "address"
        },
        {
          "indexed": false,
          "internalType": "uint256",
          "name": "amount",
          "type": "uint256"
        },
        {
          "indexed": false,
          "internalType": "uint8",
          "name": "operationalPercent",
          "type": "uint8"
        },
        {
          "indexed": false,
          "internalType": "uint256",
          "name": "timestamp",
          "type": "uint256"
        },
        {
          "indexed": true,
          "internalType": "uint256",
          "name": "tokenId",
          "type": "uint256"
        }
      ],
      "name": "DonateEvent",
      "type": "event"
    },
    {
      "anonymous": false,
      "inputs": [
        {
          "indexed": true,
          "internalType": "address",
          "name": "owner",
          "type": "address"
        },
        {
          "indexed": false,
          "internalType": "uint8",
          "name": "oldPercent",
          "type": "uint8"
        },
        {
          "indexed": false,
          "internalType": "uint8",
          "name": "newPercent",
          "type": "uint8"
        },
        {
          "indexed": false,
          "internalType": "uint256",
          "name": "timestamp",
          "type": "uint256"
        }
      ],
      "name": "OperationalPercentUpdated",
      "type": "event"
    },
    {
      "anonymous": false,
      "inputs": [
        {
          "indexed": true,
          "internalType": "address",
          "name": "previousOwner",
          "type": "address"
        },
        {
          "indexed": true,
          "internalType": "address",
          "name": "newOwner",
          "type": "address"
        }
      ],
      "name": "OwnershipTransferred",
      "type": "event"
    },
    {
      "anonymous": false,
      "inputs": [
        {
          "indexed": true,
          "internalType": "address",
          "name": "from",
          "type": "address"
        },
        {
          "indexed": true,
          "internalType": "address",
          "name": "to",
          "type": "address"
        },
        {
          "indexed": true,
          "internalType": "uint256",
          "name": "tokenId",
          "type": "uint256"
        }
      ],
      "name": "Transfer",
      "type": "event"
    },
    {
      "anonymous": false,
      "inputs": [
        {
          "indexed": true,
          "internalType": "address",
          "name": "owner",
          "type": "address"
        },
        {
          "indexed": false,
          "internalType": "uint256",
          "name": "amount",
          "type": "uint256"
        },
        {
          "indexed": false,
          "internalType": "uint256",
          "name": "timestamp",
          "type": "uint256"
        }
      ],
      "name": "WithdrawalEvent",
      "type": "event"
    },
    {
      "inputs": [],
      "name": "FEE_PERCENT",
      "outputs": [
        {
          "internalType": "uint8",
          "name": "",
          "type": "uint8"
        }
      ],
      "stateMutability": "view",
      "type": "function"
    },
    {
      "inputs": [],
      "name": "WALLET_TYPE_INDIVIDUAL",
      "outputs": [
        {
          "internalType": "uint8",
          "name": "",
          "type": "uint8"
        }
      ],
      "stateMutability": "view",
      "type": "function"
    },
    {
      "inputs": [],
      "name": "WALLET_TYPE_ORGANIZATION",
      "outputs": [
        {
          "internalType": "uint8",
          "name": "",
          "type": "uint8"
        }
      ],
      "stateMutability": "view",
      "type": "function"
    },
    {
      "inputs": [
        {
          "internalType": "address",
          "name": "to",
          "type": "address"
        },
        {
          "internalType": "uint256",
          "name": "tokenId",
          "type": "uint256"
        }
      ],
      "name": "approve",
      "outputs": [],
      "stateMutability": "nonpayable",
      "type": "function"
    },
    {
      "inputs": [
        {
          "internalType": "address",
          "name": "owner",
          "type": "address"
        }
      ],
      "name": "balanceOf",
      "outputs": [
        {
          "internalType": "uint256",
          "name": "",
          "type": "uint256"
        }
      ],
      "stateMutability": "view",
      "type": "function"
    },
    {
      "inputs": [],
      "name": "contractRevenue",
      "outputs": [
        {
          "internalType": "uint256",
          "name": "",
          "type": "uint256"
        }
      ],
      "stateMutability": "view",
      "type": "function"
    },
    {
      "inputs": [
        {
          "internalType": "uint8",
          "name": "_walletType",
          "type": "uint8"
        },
        {
          "internalType": "uint8",
          "name": "_operationalPercent",
          "type": "uint8"
        }
      ],
      "name": "createWallet",
      "outputs": [],
      "stateMutability": "nonpayable",
      "type": "function"
    },
    {
      "inputs": [],
      "name": "deposit",
      "outputs": [],
      "stateMutability": "payable",
      "type": "function"
    },
    {
      "inputs": [
        {
          "internalType": "address",
          "name": "_receiver",
          "type": "address"
        },
        {
          "internalType": "uint256",
          "name": "_amount",
          "type": "uint256"
        },
        {
          "internalType": "uint8",
          "name": "_expectedOperationalPercent",
          "type": "uint8"
        }
      ],
      "name": "donate",
      "outputs": [
        {
          "internalType": "bool",
          "name": "",
          "type": "bool"
        }
      ],
      "stateMutability": "nonpayable",
      "type": "function"
    },
    {
      "inputs": [
        {
          "internalType": "uint256",
          "name": "tokenId",
          "type": "uint256"
        }
      ],
      "name": "getApproved",
      "outputs": [
        {
          "internalType": "address",
          "name": "",
          "type": "address"
        }
      ],
      "stateMutability": "view",
      "type": "function"
    },
    {
      "inputs": [
        {
          "internalType": "address",
          "name": "owner",
          "type": "address"
        },
        {
          "internalType": "address",
          "name": "operator",
          "type": "address"
        }
      ],
      "name": "isApprovedForAll",
      "outputs": [
        {
          "internalType": "bool",
          "name": "",
          "type": "bool"
        }
      ],
      "stateMutability": "view",
      "type": "function"
    },
    {
      "inputs": [
        {
          "internalType": "uint256",
          "name": "",
          "type": "uint256"
        }
      ],
      "name": "metadata",
      "outputs": [
        {
          "internalType": "address",
          "name": "donor",
          "type": "address"
        },
        {
          "internalType": "address",
          "name": "receiver",
          "type": "address"
        },
        {
          "internalType": "uint256",
          "name": "amount",
          "type": "uint256"
        },
        {
          "internalType": "uint8",
          "name": "operationalPercent",
          "type": "uint8"
        },
        {
          "internalType": "uint256",
          "name": "timestamp",
          "type": "uint256"
        }
      ],
      "stateMutability": "view",
      "type": "function"
    },
    {
      "inputs": [],
      "name": "name",
      "outputs": [
        {
          "internalType": "string",
          "name": "",
          "type": "string"
        }
      ],
      "stateMutability": "view",
      "type": "function"
    },
    {
      "inputs": [
        {
          "internalType": "address",
          "name": "",
          "type": "address"
        }
      ],
      "name": "operationalFundsWallets",
      "outputs": [
        {
          "internalType": "uint256",
          "name": "",
          "type": "uint256"
        }
      ],
      "stateMutability": "view",
      "type": "function"
    },
    {
      "inputs": [
        {
          "internalType": "address",
          "name": "",
          "type": "address"
        }
      ],
      "name": "operationalPercents",
      "outputs": [
        {
          "internalType": "uint8",
          "name": "",
          "type": "uint8"
        }
      ],
      "stateMutability": "view",
      "type": "function"
    },
    {
      "inputs": [],
      "name": "owner",
      "outputs": [
        {
          "internalType": "address",
          "name": "",
          "type": "address"
        }
      ],
      "stateMutability": "view",
      "type": "function"
    },
    {
      "inputs": [
        {
          "internalType": "uint256",
          "name": "tokenId",
          "type": "uint256"
        }
      ],
      "name": "ownerOf",
      "outputs": [
        {
          "internalType": "address",
          "name": "",
          "type": "address"
        }
      ],
      "stateMutability": "view",
      "type": "function"
    },
    {
      "inputs": [],
      "name": "renounceOwnership",
      "outputs": [],
      "stateMutability": "nonpayable",
      "type": "function"
    },
    {
      "inputs": [
        {
          "internalType": "address",
          "name": "from",
          "type": "address"
        },
        {
          "internalType": "address",
          "name": "to",
          "type": "address"
        },
        {
          "internalType": "uint256",
          "name": "tokenId",
          "type": "uint256"
        }
      ],
      "name": "safeTransferFrom",
      "outputs": [],
      "stateMutability": "nonpayable",
      "type": "function"
    },
    {
      "inputs": [
        {
          "internalType": "address",
          "name": "from",
          "type": "address"
        },
        {
          "internalType": "address",
          "name": "to",
          "type": "address"
        },
        {
          "internalType": "uint256",
          "name": "tokenId",
          "type": "uint256"
        },
        {
          "internalType": "bytes",
          "name": "data",
          "type": "bytes"
        }
      ],
      "name": "safeTransferFrom",
      "outputs": [],
      "stateMutability": "nonpayable",
      "type": "function"
    },
    {
      "inputs": [
        {
          "internalType": "address",
          "name": "operator",
          "type": "address"
        },
        {
          "internalType": "bool",
          "name": "approved",
          "type": "bool"
        }
      ],
      "name": "setApprovalForAll",
      "outputs": [],
      "stateMutability": "nonpayable",
      "type": "function"
    },
    {
      "inputs": [
        {
          "internalType": "string",
          "name": "baseURI",
          "type": "string"
        }
      ],
      "name": "setBaseURI",
      "outputs": [],
      "stateMutability": "nonpayable",
      "type": "function"
    },
    {
      "inputs": [
        {
          "internalType": "bytes4",
          "name": "interfaceId",
          "type": "bytes4"
        }
      ],
      "name": "supportsInterface",
      "outputs": [
        {
          "internalType": "bool",
          "name": "",
          "type": "bool"
        }
      ],
      "stateMutability": "view",
      "type": "function"
    },
    {
      "inputs": [],
      "name": "symbol",
      "outputs": [
        {
          "internalType": "string",
          "name": "",
          "type": "string"
        }
      ],
      "stateMutability": "view",
      "type": "function"
    },
    {
      "inputs": [
        {
          "internalType": "uint256",
          "name": "_token",
          "type": "uint256"
        }
      ],
      "name": "tokenURI",
      "outputs": [
        {
          "internalType": "string",
          "name": "",
          "type": "string"
        }
      ],
      "stateMutability": "view",
      "type": "function"
    },
    {
      "inputs": [
        {
          "internalType": "address",
          "name": "from",
          "type": "address"
        },
        {
          "internalType": "address",
          "name": "to",
          "type": "address"
        },
        {
          "internalType": "uint256",
          "name": "tokenId",
          "type": "uint256"
        }
      ],
      "name": "transferFrom",
      "outputs": [],
      "stateMutability": "nonpayable",
      "type": "function"
    },
    {
      "inputs": [
        {
          "internalType": "address",
          "name": "newOwner",
          "type": "address"
        }
      ],
      "name": "transferOwnership",
      "outputs": [],
      "stateMutability": "nonpayable",
      "type": "function"
    },
    {
      "inputs": [
        {
          "internalType": "uint8",
          "name": "_newOperationalPercent",
          "type": "uint8"
        }
      ],
      "name": "updateOperationalPercent",
      "outputs": [],
      "stateMutability": "nonpayable",
      "type": "function"
    },
    {
      "inputs": [
        {
          "internalType": "address",
          "name": "_address",
          "type": "address"
        }
      ],
      "name": "walletExists",
      "outputs": [
        {
          "internalType": "bool",
          "name": "",
          "type": "bool"
        }
      ],
      "stateMutability": "view",
      "type": "function"
    },
    {
      "inputs": [
        {
          "internalType": "address",
          "name": "",
          "type": "address"
        }
      ],
      "name": "walletTypes",
      "outputs": [
        {
          "internalType": "uint8",
          "name": "",
          "type": "uint8"
        }
      ],
      "stateMutability": "view",
      "type": "function"
    },
    {
      "inputs": [
        {
          "internalType": "address",
          "name": "",
          "type": "address"
        }
      ],
      "name": "wallets",
      "outputs": [
        {
          "internalType": "uint256",
          "name": "",
          "type": "uint256"
        }
      ],
      "stateMutability": "view",
      "type": "function"
    },
    {
      "inputs": [
        {
          "internalType": "address payable",
          "name": "_recipient",
          "type": "address"
        },
        {
          "internalType": "uint256",
          "name": "_amount",
          "type": "uint256"
        }
      ],
      "name": "withdrawContractRevenue",
      "outputs": [],
      "stateMutability": "nonpayable",
      "type": "function"
    },
    {
      "inputs": [
        {
          "internalType": "uint256",
          "name": "_amount",
          "type": "uint256"
        }
      ],
      "name": "withdrawal",
      "outputs": [],
      "stateMutability": "nonpayable",
      "type": "function"
    }
  ],
  "bytecode": "0x60806040523480156200001157600080fd5b50336040518060400160405280601081526020017f446f6e6174696f6e436f6e7472616374000000000000000000000000000000008152506040518060400160405280600481526020017f444e43540000000000000000000000000000000000000000000000000000000081525081600090816200009091906200047a565b508060019081620000a291906200047a565b505050600073ffffffffffffffffffffffffffffffffffffffff168173ffffffffffffffffffffffffffffffffffffffff16036200011a5760006040517f1e4fbdf7000000000000000000000000000000000000000000000000000000008152600401620001119190620005a6565b60405180910390fd5b6200012b816200013a60201b60201c565b506001600781905550620005c3565b6000600660009054906101000a900473ffffffffffffffffffffffffffffffffffffffff16905081600660006101000a81548173ffffffffffffffffffffffffffffffffffffffff021916908373ffffffffffffffffffffffffffffffffffffffff1602179055508173ffffffffffffffffffffffffffffffffffffffff168173ffffffffffffffffffffffffffffffffffffffff167f8be0079c531659141344cd1fd0a4f28419497f9722a3daafe3b4186f6b6457e060405160405180910390a35050565b600081519050919050565b7f4e487b7100000000000000000000000000000000000000000000000000000000600052604160045260246000fd5b7f4e487b7100000000000000000000000000000000000000000000000000000000600052602260045260246000fd5b600060028204905060018216806200028257607f821691505b6020821081036200029857620002976200023a565b5b50919050565b60008190508160005260206000209050919050565b60006020601f8301049050919050565b600082821b905092915050565b600060088302620003027fffffffffffffffffffffffffffffffffffffffffffffffffffffffffffffffff82620002c3565b6200030e8683620002c3565b95508019841693508086168417925050509392505050565b6000819050919050565b6000819050919050565b60006200035b620003556200034f8462000326565b62000330565b62000326565b9050919050565b6000819050919050565b62000377836200033a565b6200038f620003868262000362565b848454620002d0565b825550505050565b600090565b620003a662000397565b620003b38184846200036c565b505050565b5b81811015620003db57620003cf6000826200039c565b600181019050620003b9565b5050565b601f8211156200042a57620003f4816200029e565b620003ff84620002b3565b810160208510156200040f578190505b620004276200041e85620002b3565b830182620003b8565b50505b505050565b600082821c905092915050565b60006200044f600019846008026200042f565b1980831691505092915050565b60006200046a83836200043c565b9150826002028217905092915050565b620004858262000200565b67ffffffffffffffff811115620004a157620004a06200020b565b5b620004ad825462000269565b620004ba828285620003df565b600060209050601f831160018114620004f25760008415620004dd578287015190505b620004e985826200045c565b86555062000559565b601f19841662000502866200029e565b60005b828110156200052c5784890151825560018201915060208501945060208101905062000505565b868310156200054c578489015162000548601f8916826200043c565b8355505b6001600288020188555050505b505050505050565b600073ffffffffffffffffffffffffffffffffffffffff82169050919050565b60006200058e8262000561565b9050919050565b620005a08162000581565b82525050565b6000602082019050620005bd600083018462000595565b92915050565b614ec780620005d36000396000f3fe6080604052600436106101ed5760003560e01c8063715018a61161010d578063c53d6f9b116100a0578063defbc4fb1161006f578063defbc4fb14610723578063e3684e391461074e578063e985e9c51461078f578063eaf98d23146107cc578063f2fde38b146107f7576101ed565b8063c53d6f9b14610688578063c87b56dd146106b1578063d0e30db0146106ee578063de5ea742146106f8576101ed565b806395d89b41116100dc57806395d89b41146105ce578063a22cb465146105f9578063b88d4fde14610622578063ba88a0481461064b576101ed565b8063715018a614610526578063835fc6ca1461053d57806389b08f11146105665780638da5cb5b146105a3576101ed565b806326873b1b1161018557806355f804b31161015457806355f804b3146104465780636352211e1461046f5780636501f721146104ac57806370a08231146104e9576101ed565b806326873b1b1461037a5780632c03abe2146103b757806342842e0e146103f45780634b96c2711461041d576101ed565b806307efa459116101c157806307efa459146102c2578063081812fc146102eb578063095ea7b31461032857806323b872dd14610351576101ed565b8062db9e1c146101f257806301ffc9a71461022f578063030c580c1461026c57806306fdde0314610297575b600080fd5b3480156101fe57600080fd5b5061021960048036038101906102149190613456565b610820565b604051610226919061349f565b60405180910390f35b34801561023b57600080fd5b5061025660048036038101906102519190613512565b610840565b604051610263919061355a565b60405180910390f35b34801561027857600080fd5b50610281610922565b60405161028e919061349f565b60405180910390f35b3480156102a357600080fd5b506102ac610927565b6040516102b99190613605565b60405180910390f35b3480156102ce57600080fd5b506102e960048036038101906102e4919061369b565b6109b9565b005b3480156102f757600080fd5b50610312600480360381019061030d91906136db565b610be2565b60405161031f9190613717565b60405180910390f35b34801561033457600080fd5b5061034f600480360381019061034a9190613732565b610bfe565b005b34801561035d57600080fd5b5061037860048036038101906103739190613772565b610c14565b005b34801561038657600080fd5b506103a1600480360381019061039c9190613456565b610d16565b6040516103ae91906137d4565b60405180910390f35b3480156103c357600080fd5b506103de60048036038101906103d99190613456565b610d2e565b6040516103eb919061355a565b60405180910390f35b34801561040057600080fd5b5061041b60048036038101906104169190613772565b610dea565b005b34801561042957600080fd5b50610444600480360381019061043f919061381b565b610e0a565b005b34801561045257600080fd5b5061046d6004803603810190610468919061397d565b611005565b005b34801561047b57600080fd5b50610496600480360381019061049191906136db565b611020565b6040516104a39190613717565b60405180910390f35b3480156104b857600080fd5b506104d360048036038101906104ce91906139c6565b611032565b6040516104e0919061355a565b60405180910390f35b3480156104f557600080fd5b50610510600480360381019061050b9190613456565b61169a565b60405161051d91906137d4565b60405180910390f35b34801561053257600080fd5b5061053b611754565b005b34801561054957600080fd5b50610564600480360381019061055f91906136db565b611768565b005b34801561057257600080fd5b5061058d60048036038101906105889190613456565b611b2b565b60405161059a91906137d4565b60405180910390f35b3480156105af57600080fd5b506105b8611b43565b6040516105c59190613717565b60405180910390f35b3480156105da57600080fd5b506105e3611b6d565b6040516105f09190613605565b60405180910390f35b34801561060557600080fd5b50610620600480360381019061061b9190613a45565b611bff565b005b34801561062e57600080fd5b5061064960048036038101906106449190613b26565b611c15565b005b34801561065757600080fd5b50610672600480360381019061066d9190613456565b611c3a565b60405161067f919061349f565b60405180910390f35b34801561069457600080fd5b506106af60048036038101906106aa9190613ba9565b611c5a565b005b3480156106bd57600080fd5b506106d860048036038101906106d391906136db565b611f13565b6040516106e59190613605565b60405180910390f35b6106f661200f565b005b34801561070457600080fd5b5061070d612142565b60405161071a91906137d4565b60405180910390f35b34801561072f57600080fd5b50610738612148565b604051610745919061349f565b60405180910390f35b34801561075a57600080fd5b50610775600480360381019061077091906136db565b61214d565b604051610786959493929190613be9565b60405180910390f35b34801561079b57600080fd5b506107b660048036038101906107b19190613c3c565b6121d0565b6040516107c3919061355a565b60405180910390f35b3480156107d857600080fd5b506107e1612264565b6040516107ee919061349f565b60405180910390f35b34801561080357600080fd5b5061081e60048036038101906108199190613456565b612269565b005b600c6020528060005260406000206000915054906101000a900460ff1681565b60007f80ac58cd000000000000000000000000000000000000000000000000000000007bffffffffffffffffffffffffffffffffffffffffffffffffffffffff1916827bffffffffffffffffffffffffffffffffffffffffffffffffffffffff1916148061090b57507f5b5e139f000000000000000000000000000000000000000000000000000000007bffffffffffffffffffffffffffffffffffffffffffffffffffffffff1916827bffffffffffffffffffffffffffffffffffffffffffffffffffffffff1916145b8061091b575061091a826122ef565b5b9050919050565b600181565b60606000805461093690613cab565b80601f016020809104026020016040519081016040528092919081815260200182805461096290613cab565b80156109af5780601f10610984576101008083540402835291602001916109af565b820191906000526020600020905b81548152906001019060200180831161099257829003601f168201915b5050505050905090565b6109c1612359565b6109c96123e0565b600073ffffffffffffffffffffffffffffffffffffffff168273ffffffffffffffffffffffffffffffffffffffff1603610a38576040517f08c379a0000000000000000000000000000000000000000000000000000000008152600401610a2f90613d4e565b60405180910390fd5b60008111610a7b576040517f08c379a0000000000000000000000000000000000000000000000000000000008152600401610a7290613de0565b60405180910390fd5b806008541015610ac0576040517f08c379a0000000000000000000000000000000000000000000000000000000008152600401610ab790613e72565b60405180910390fd5b8060086000828254610ad29190613ec1565b9250508190555060008273ffffffffffffffffffffffffffffffffffffffff1682604051610aff90613f26565b60006040518083038185875af1925050503d8060008114610b3c576040519150601f19603f3d011682016040523d82523d6000602084013e610b41565b606091505b5050905080610b85576040517f08c379a0000000000000000000000000000000000000000000000000000000008152600401610b7c90613fad565b60405180910390fd5b8273ffffffffffffffffffffffffffffffffffffffff167fd439ab51403a2b8d4ae07fdac03dbce93461f3685096ab7d52e76f6f6d2eb5668342604051610bcd929190613fcd565b60405180910390a250610bde612426565b5050565b6000610bed82612430565b50610bf7826124b8565b9050919050565b610c108282610c0b6124f5565b6124fd565b5050565b600073ffffffffffffffffffffffffffffffffffffffff168273ffffffffffffffffffffffffffffffffffffffff1603610c865760006040517f64a0ae92000000000000000000000000000000000000000000000000000000008152600401610c7d9190613717565b60405180910390fd5b6000610c9a8383610c956124f5565b61250f565b90508373ffffffffffffffffffffffffffffffffffffffff168173ffffffffffffffffffffffffffffffffffffffff1614610d10578382826040517f64283d7b000000000000000000000000000000000000000000000000000000008152600401610d0793929190613ff6565b60405180910390fd5b50505050565b600b6020528060005260406000206000915090505481565b6000600260ff16600a60008473ffffffffffffffffffffffffffffffffffffffff1673ffffffffffffffffffffffffffffffffffffffff16815260200190815260200160002060009054906101000a900460ff1660ff161480610de35750600160ff16600a60008473ffffffffffffffffffffffffffffffffffffffff1673ffffffffffffffffffffffffffffffffffffffff16815260200190815260200160002060009054906101000a900460ff1660ff16145b9050919050565b610e0583838360405180602001604052806000815250611c15565b505050565b610e126123e0565b600160ff16600a60003373ffffffffffffffffffffffffffffffffffffffff1673ffffffffffffffffffffffffffffffffffffffff16815260200190815260200160002060009054906101000a900460ff1660ff1614610ea7576040517f08c379a0000000000000000000000000000000000000000000000000000000008152600401610e9e9061409f565b60405180910390fd5b60008160ff1610158015610ebf575060648160ff1611155b610efe576040517f08c379a0000000000000000000000000000000000000000000000000000000008152600401610ef590614131565b60405180910390fd5b6000600c60003373ffffffffffffffffffffffffffffffffffffffff1673ffffffffffffffffffffffffffffffffffffffff16815260200190815260200160002060009054906101000a900460ff16905081600c60003373ffffffffffffffffffffffffffffffffffffffff1673ffffffffffffffffffffffffffffffffffffffff16815260200190815260200160002060006101000a81548160ff021916908360ff1602179055503373ffffffffffffffffffffffffffffffffffffffff167f99aa7f8141479da75f7d682bb678dc16ccc761900e04a037b563d8ffea1fc3e1828442604051610ff193929190614151565b60405180910390a250611002612426565b50565b61100d612359565b80600f908161101c9190614334565b5050565b600061102b82612430565b9050919050565b600061103c6123e0565b3373ffffffffffffffffffffffffffffffffffffffff168473ffffffffffffffffffffffffffffffffffffffff16036110aa576040517f08c379a00000000000000000000000000000000000000000000000000000000081526004016110a190614452565b60405180910390fd5b600083116110ed576040517f08c379a00000000000000000000000000000000000000000000000000000000081526004016110e4906144e4565b60405180910390fd5b82600960003373ffffffffffffffffffffffffffffffffffffffff1673ffffffffffffffffffffffffffffffffffffffff16815260200190815260200160002054101561116f576040517f08c379a000000000000000000000000000000000000000000000000000000000815260040161116690614550565b60405180910390fd5b6000600a60003373ffffffffffffffffffffffffffffffffffffffff1673ffffffffffffffffffffffffffffffffffffffff16815260200190815260200160002060009054906101000a900460ff1690506000600a60008773ffffffffffffffffffffffffffffffffffffffff1673ffffffffffffffffffffffffffffffffffffffff16815260200190815260200160002060009054906101000a900460ff169050600260ff168260ff16148061122c5750600160ff168260ff16145b61126b576040517f08c379a0000000000000000000000000000000000000000000000000000000008152600401611262906145bc565b60405180910390fd5b600260ff168160ff1614806112865750600160ff168160ff16145b6112c5576040517f08c379a00000000000000000000000000000000000000000000000000000000081526004016112bc90614628565b60405180910390fd5b6000600260ff168360ff161480156112e35750600160ff168260ff16145b806113065750600160ff168360ff161480156113055750600160ff168260ff16145b5b806113295750600160ff168360ff161480156113285750600260ff168260ff16145b5b90508061136b576040517f08c379a000000000000000000000000000000000000000000000000000000000815260040161136290614694565b60405180910390fd5b6000600c60008973ffffffffffffffffffffffffffffffffffffffff1673ffffffffffffffffffffffffffffffffffffffff16815260200190815260200160002060009054906101000a900460ff169050600160ff168360ff1603611539578560ff168160ff1614611412576040517f08c379a000000000000000000000000000000000000000000000000000000000815260040161140990614726565b60405180910390fd5b60006064600260ff16896114269190614746565b61143091906147b7565b9050600081896114409190613ec1565b9050600060648460ff16836114559190614746565b61145f91906147b7565b9050826008600082825461147391906147e8565b9250508190555080600b60008d73ffffffffffffffffffffffffffffffffffffffff1673ffffffffffffffffffffffffffffffffffffffff16815260200190815260200160002060008282546114c991906147e8565b9250508190555080826114dc9190613ec1565b600960008d73ffffffffffffffffffffffffffffffffffffffff1673ffffffffffffffffffffffffffffffffffffffff168152602001908152602001600020600082825461152a91906147e8565b925050819055505050506115b2565b600160ff168460ff161480156115555750600260ff168360ff16145b156115b15786600960008a73ffffffffffffffffffffffffffffffffffffffff1673ffffffffffffffffffffffffffffffffffffffff16815260200190815260200160002060008282546115a991906147e8565b925050819055505b5b86600960003373ffffffffffffffffffffffffffffffffffffffff1673ffffffffffffffffffffffffffffffffffffffff16815260200190815260200160002060008282546116019190613ec1565b925050819055506000611616338a8a85612729565b9050808973ffffffffffffffffffffffffffffffffffffffff163373ffffffffffffffffffffffffffffffffffffffff167f4d40d62a4df57423f0abe3e0fcd971c19fedd9863fbc3bda4a347897e8dfe0f18b864260405161167a9392919061481c565b60405180910390a4600195505050505050611693612426565b9392505050565b60008073ffffffffffffffffffffffffffffffffffffffff168273ffffffffffffffffffffffffffffffffffffffff160361170d5760006040517f89c62b640000000000000000000000000000000000000000000000000000000081526004016117049190613717565b60405180910390fd5b600360008373ffffffffffffffffffffffffffffffffffffffff1673ffffffffffffffffffffffffffffffffffffffff168152602001908152602001600020549050919050565b61175c612359565b6117666000612889565b565b6117706123e0565b600081116117b3576040517f08c379a00000000000000000000000000000000000000000000000000000000081526004016117aa90613de0565b60405180910390fd5b6000600a60003373ffffffffffffffffffffffffffffffffffffffff1673ffffffffffffffffffffffffffffffffffffffff16815260200190815260200160002060009054906101000a900460ff169050600260ff168160ff16148061181f5750600160ff168160ff16145b61185e576040517f08c379a00000000000000000000000000000000000000000000000000000000081526004016118559061489f565b60405180910390fd5b600260ff168160ff16036119495781600960003373ffffffffffffffffffffffffffffffffffffffff1673ffffffffffffffffffffffffffffffffffffffff1681526020019081526020016000205410156118ee576040517f08c379a00000000000000000000000000000000000000000000000000000000081526004016118e590614931565b60405180910390fd5b81600960003373ffffffffffffffffffffffffffffffffffffffff1673ffffffffffffffffffffffffffffffffffffffff168152602001908152602001600020600082825461193d9190613ec1565b92505081905550611a22565b81600b60003373ffffffffffffffffffffffffffffffffffffffff1673ffffffffffffffffffffffffffffffffffffffff1681526020019081526020016000205410156119cb576040517f08c379a00000000000000000000000000000000000000000000000000000000081526004016119c2906149c3565b60405180910390fd5b81600b60003373ffffffffffffffffffffffffffffffffffffffff1673ffffffffffffffffffffffffffffffffffffffff1681526020019081526020016000206000828254611a1a9190613ec1565b925050819055505b60003373ffffffffffffffffffffffffffffffffffffffff1683604051611a4890613f26565b60006040518083038185875af1925050503d8060008114611a85576040519150601f19603f3d011682016040523d82523d6000602084013e611a8a565b606091505b5050905080611ace576040517f08c379a0000000000000000000000000000000000000000000000000000000008152600401611ac590614a2f565b60405180910390fd5b3373ffffffffffffffffffffffffffffffffffffffff167fbda29a9e6b4ed78b3ef7f48ca275518ddc1404cc7fb70813569407d029e599028442604051611b16929190613fcd565b60405180910390a25050611b28612426565b50565b60096020528060005260406000206000915090505481565b6000600660009054906101000a900473ffffffffffffffffffffffffffffffffffffffff16905090565b606060018054611b7c90613cab565b80601f0160208091040260200160405190810160405280929190818152602001828054611ba890613cab565b8015611bf55780601f10611bca57610100808354040283529160200191611bf5565b820191906000526020600020905b815481529060010190602001808311611bd857829003601f168201915b5050505050905090565b611c11611c0a6124f5565b838361294f565b5050565b611c20848484610c14565b611c34611c2b6124f5565b85858585612abe565b50505050565b600a6020528060005260406000206000915054906101000a900460ff1681565b611c6333610d2e565b15611ca3576040517f08c379a0000000000000000000000000000000000000000000000000000000008152600401611c9a90614ac1565b60405180910390fd5b600260ff168260ff161480611cbe5750600160ff168260ff16145b611cfd576040517f08c379a0000000000000000000000000000000000000000000000000000000008152600401611cf49061489f565b60405180910390fd5b60008160ff1610158015611d15575060648160ff1611155b611d54576040517f08c379a0000000000000000000000000000000000000000000000000000000008152600401611d4b90614131565b60405180910390fd5b81600a60003373ffffffffffffffffffffffffffffffffffffffff1673ffffffffffffffffffffffffffffffffffffffff16815260200190815260200160002060006101000a81548160ff021916908360ff160217905550600160ff168260ff1603611e175780600c60003373ffffffffffffffffffffffffffffffffffffffff1673ffffffffffffffffffffffffffffffffffffffff16815260200190815260200160002060006101000a81548160ff021916908360ff160217905550611e71565b6000600c60003373ffffffffffffffffffffffffffffffffffffffff1673ffffffffffffffffffffffffffffffffffffffff16815260200190815260200160002060006101000a81548160ff021916908360ff1602179055505b3373ffffffffffffffffffffffffffffffffffffffff167fb2633d106a7f8f224ac391eedc25cef24e0d11e10ab161c81f7e472351e8ac2d83600c60003373ffffffffffffffffffffffffffffffffffffffff1673ffffffffffffffffffffffffffffffffffffffff16815260200190815260200160002060009054906101000a900460ff1642604051611f0793929190614151565b60405180910390a25050565b60606000611f1f612c6f565b5111611f60576040517f08c379a0000000000000000000000000000000000000000000000000000000008152600401611f5790614b2d565b60405180910390fd5b600073ffffffffffffffffffffffffffffffffffffffff16611f8183612d01565b73ffffffffffffffffffffffffffffffffffffffff1603611fd7576040517f08c379a0000000000000000000000000000000000000000000000000000000008152600401611fce90614b99565b60405180910390fd5b611fdf612c6f565b611fe883612d3e565b604051602001611ff9929190614bf5565b6040516020818303038152906040529050919050565b61201833610d2e565b612057576040517f08c379a000000000000000000000000000000000000000000000000000000000815260040161204e90614c8b565b60405180910390fd5b6000341161209a576040517f08c379a000000000000000000000000000000000000000000000000000000000815260040161209190614d1d565b60405180910390fd5b34600960003373ffffffffffffffffffffffffffffffffffffffff1673ffffffffffffffffffffffffffffffffffffffff16815260200190815260200160002060008282546120e991906147e8565b925050819055503373ffffffffffffffffffffffffffffffffffffffff167fad40ae5dc69974ba932d08b0a608e89109412d41d04850f5196f144875ae26603442604051612138929190613fcd565b60405180910390a2565b60085481565b600281565b600e6020528060005260406000206000915090508060000160009054906101000a900473ffffffffffffffffffffffffffffffffffffffff16908060010160009054906101000a900473ffffffffffffffffffffffffffffffffffffffff16908060020154908060030160009054906101000a900460ff16908060040154905085565b6000600560008473ffffffffffffffffffffffffffffffffffffffff1673ffffffffffffffffffffffffffffffffffffffff16815260200190815260200160002060008373ffffffffffffffffffffffffffffffffffffffff1673ffffffffffffffffffffffffffffffffffffffff16815260200190815260200160002060009054906101000a900460ff16905092915050565b600281565b612271612359565b600073ffffffffffffffffffffffffffffffffffffffff168173ffffffffffffffffffffffffffffffffffffffff16036122e35760006040517f1e4fbdf70000000000000000000000000000000000000000000000000000000081526004016122da9190613717565b60405180910390fd5b6122ec81612889565b50565b60007f01ffc9a7000000000000000000000000000000000000000000000000000000007bffffffffffffffffffffffffffffffffffffffffffffffffffffffff1916827bffffffffffffffffffffffffffffffffffffffffffffffffffffffff1916149050919050565b6123616124f5565b73ffffffffffffffffffffffffffffffffffffffff1661237f611b43565b73ffffffffffffffffffffffffffffffffffffffff16146123de576123a26124f5565b6040517f118cdaa70000000000000000000000000000000000000000000000000000000081526004016123d59190613717565b60405180910390fd5b565b60026007540361241c576040517f3ee5aeb500000000000000000000000000000000000000000000000000000000815260040160405180910390fd5b6002600781905550565b6001600781905550565b60008061243c83612d01565b9050600073ffffffffffffffffffffffffffffffffffffffff168173ffffffffffffffffffffffffffffffffffffffff16036124af57826040517f7e2732890000000000000000000000000000000000000000000000000000000081526004016124a691906137d4565b60405180910390fd5b80915050919050565b60006004600083815260200190815260200160002060009054906101000a900473ffffffffffffffffffffffffffffffffffffffff169050919050565b600033905090565b61250a8383836001612e0c565b505050565b60008061251b84612d01565b9050600073ffffffffffffffffffffffffffffffffffffffff168373ffffffffffffffffffffffffffffffffffffffff161461255d5761255c818486612fd1565b5b600073ffffffffffffffffffffffffffffffffffffffff168173ffffffffffffffffffffffffffffffffffffffff16146125ee5761259f600085600080612e0c565b6001600360008373ffffffffffffffffffffffffffffffffffffffff1673ffffffffffffffffffffffffffffffffffffffff168152602001908152602001600020600082825403925050819055505b600073ffffffffffffffffffffffffffffffffffffffff168573ffffffffffffffffffffffffffffffffffffffff1614612671576001600360008773ffffffffffffffffffffffffffffffffffffffff1673ffffffffffffffffffffffffffffffffffffffff168152602001908152602001600020600082825401925050819055505b846002600086815260200190815260200160002060006101000a81548173ffffffffffffffffffffffffffffffffffffffff021916908373ffffffffffffffffffffffffffffffffffffffff160217905550838573ffffffffffffffffffffffffffffffffffffffff168273ffffffffffffffffffffffffffffffffffffffff167fddf252ad1be2c89b69c2b068fc378daa952ba7f163c4a11628f55a4df523b3ef60405160405180910390a4809150509392505050565b600061273785600d54613095565b6040518060a001604052808673ffffffffffffffffffffffffffffffffffffffff1681526020018573ffffffffffffffffffffffffffffffffffffffff1681526020018481526020018360ff16815260200142815250600e6000600d54815260200190815260200160002060008201518160000160006101000a81548173ffffffffffffffffffffffffffffffffffffffff021916908373ffffffffffffffffffffffffffffffffffffffff16021790555060208201518160010160006101000a81548173ffffffffffffffffffffffffffffffffffffffff021916908373ffffffffffffffffffffffffffffffffffffffff1602179055506040820151816002015560608201518160030160006101000a81548160ff021916908360ff16021790555060808201518160040155905050600d600081548092919061287b90614d3d565b919050559050949350505050565b6000600660009054906101000a900473ffffffffffffffffffffffffffffffffffffffff16905081600660006101000a81548173ffffffffffffffffffffffffffffffffffffffff021916908373ffffffffffffffffffffffffffffffffffffffff1602179055508173ffffffffffffffffffffffffffffffffffffffff168173ffffffffffffffffffffffffffffffffffffffff167f8be0079c531659141344cd1fd0a4f28419497f9722a3daafe3b4186f6b6457e060405160405180910390a35050565b600073ffffffffffffffffffffffffffffffffffffffff168273ffffffffffffffffffffffffffffffffffffffff16036129c057816040517f5b08ba180000000000000000000000000000000000000000000000000000000081526004016129b79190613717565b60405180910390fd5b80600560008573ffffffffffffffffffffffffffffffffffffffff1673ffffffffffffffffffffffffffffffffffffffff16815260200190815260200160002060008473ffffffffffffffffffffffffffffffffffffffff1673ffffffffffffffffffffffffffffffffffffffff16815260200190815260200160002060006101000a81548160ff0219169083151502179055508173ffffffffffffffffffffffffffffffffffffffff168373ffffffffffffffffffffffffffffffffffffffff167f17307eab39ab6107e8899845ad3d59bd9653f200f220920489ca2b5937696c3183604051612ab1919061355a565b60405180910390a3505050565b60008373ffffffffffffffffffffffffffffffffffffffff163b1115612c68578273ffffffffffffffffffffffffffffffffffffffff1663150b7a02868685856040518563ffffffff1660e01b8152600401612b1d9493929190614dda565b6020604051808303816000875af1925050508015612b5957506040513d601f19601f82011682018060405250810190612b569190614e3b565b60015b612bdd573d8060008114612b89576040519150601f19603f3d011682016040523d82523d6000602084013e612b8e565b606091505b506000815103612bd557836040517f64a0ae92000000000000000000000000000000000000000000000000000000008152600401612bcc9190613717565b60405180910390fd5b805181602001fd5b63150b7a0260e01b7bffffffffffffffffffffffffffffffffffffffffffffffffffffffff1916817bffffffffffffffffffffffffffffffffffffffffffffffffffffffff191614612c6657836040517f64a0ae92000000000000000000000000000000000000000000000000000000008152600401612c5d9190613717565b60405180910390fd5b505b5050505050565b6060600f8054612c7e90613cab565b80601f0160208091040260200160405190810160405280929190818152602001828054612caa90613cab565b8015612cf75780601f10612ccc57610100808354040283529160200191612cf7565b820191906000526020600020905b815481529060010190602001808311612cda57829003601f168201915b5050505050905090565b60006002600083815260200190815260200160002060009054906101000a900473ffffffffffffffffffffffffffffffffffffffff169050919050565b606060006001612d4d846130b3565b01905060008167ffffffffffffffff811115612d6c57612d6b613852565b5b6040519080825280601f01601f191660200182016040528015612d9e5781602001600182028036833780820191505090505b509050600082602001820190505b600115612e01578080600190039150507f3031323334353637383961626364656600000000000000000000000000000000600a86061a8153600a8581612df557612df4614788565b5b04945060008503612dac575b819350505050919050565b8080612e455750600073ffffffffffffffffffffffffffffffffffffffff168273ffffffffffffffffffffffffffffffffffffffff1614155b15612f79576000612e5584612430565b9050600073ffffffffffffffffffffffffffffffffffffffff168373ffffffffffffffffffffffffffffffffffffffff1614158015612ec057508273ffffffffffffffffffffffffffffffffffffffff168173ffffffffffffffffffffffffffffffffffffffff1614155b8015612ed35750612ed181846121d0565b155b15612f1557826040517fa9fbf51f000000000000000000000000000000000000000000000000000000008152600401612f0c9190613717565b60405180910390fd5b8115612f7757838573ffffffffffffffffffffffffffffffffffffffff168273ffffffffffffffffffffffffffffffffffffffff167f8c5be1e5ebec7d5bd14f71427d1e84f3dd0314c0f7b2291e5b200ac8c7c3b92560405160405180910390a45b505b836004600085815260200190815260200160002060006101000a81548173ffffffffffffffffffffffffffffffffffffffff021916908373ffffffffffffffffffffffffffffffffffffffff16021790555050505050565b612fdc838383613206565b61309057600073ffffffffffffffffffffffffffffffffffffffff168373ffffffffffffffffffffffffffffffffffffffff160361305157806040517f7e27328900000000000000000000000000000000000000000000000000000000815260040161304891906137d4565b60405180910390fd5b81816040517f177e802f000000000000000000000000000000000000000000000000000000008152600401613087929190614e68565b60405180910390fd5b505050565b6130af8282604051806020016040528060008152506132c7565b5050565b600080600090507a184f03e93ff9f4daa797ed6e38ed64bf6a1f0100000000000000008310613111577a184f03e93ff9f4daa797ed6e38ed64bf6a1f010000000000000000838161310757613106614788565b5b0492506040810190505b6d04ee2d6d415b85acef8100000000831061314e576d04ee2d6d415b85acef8100000000838161314457613143614788565b5b0492506020810190505b662386f26fc10000831061317d57662386f26fc10000838161317357613172614788565b5b0492506010810190505b6305f5e10083106131a6576305f5e100838161319c5761319b614788565b5b0492506008810190505b61271083106131cb5761271083816131c1576131c0614788565b5b0492506004810190505b606483106131ee57606483816131e4576131e3614788565b5b0492506002810190505b600a83106131fd576001810190505b80915050919050565b60008073ffffffffffffffffffffffffffffffffffffffff168373ffffffffffffffffffffffffffffffffffffffff16141580156132be57508273ffffffffffffffffffffffffffffffffffffffff168473ffffffffffffffffffffffffffffffffffffffff16148061327f575061327e84846121d0565b5b806132bd57508273ffffffffffffffffffffffffffffffffffffffff166132a5836124b8565b73ffffffffffffffffffffffffffffffffffffffff16145b5b90509392505050565b6132d183836132eb565b6132e66132dc6124f5565b6000858585612abe565b505050565b600073ffffffffffffffffffffffffffffffffffffffff168273ffffffffffffffffffffffffffffffffffffffff160361335d5760006040517f64a0ae920000000000000000000000000000000000000000000000000000000081526004016133549190613717565b60405180910390fd5b600061336b8383600061250f565b9050600073ffffffffffffffffffffffffffffffffffffffff168173ffffffffffffffffffffffffffffffffffffffff16146133df5760006040517f73c6ac6e0000000000000000000000000000000000000000000000000000000081526004016133d69190613717565b60405180910390fd5b505050565b6000604051905090565b600080fd5b600080fd5b600073ffffffffffffffffffffffffffffffffffffffff82169050919050565b6000613423826133f8565b9050919050565b61343381613418565b811461343e57600080fd5b50565b6000813590506134508161342a565b92915050565b60006020828403121561346c5761346b6133ee565b5b600061347a84828501613441565b91505092915050565b600060ff82169050919050565b61349981613483565b82525050565b60006020820190506134b46000830184613490565b92915050565b60007fffffffff0000000000000000000000000000000000000000000000000000000082169050919050565b6134ef816134ba565b81146134fa57600080fd5b50565b60008135905061350c816134e6565b92915050565b600060208284031215613528576135276133ee565b5b6000613536848285016134fd565b91505092915050565b60008115159050919050565b6135548161353f565b82525050565b600060208201905061356f600083018461354b565b92915050565b600081519050919050565b600082825260208201905092915050565b60005b838110156135af578082015181840152602081019050613594565b60008484015250505050565b6000601f19601f8301169050919050565b60006135d782613575565b6135e18185613580565b93506135f1818560208601613591565b6135fa816135bb565b840191505092915050565b6000602082019050818103600083015261361f81846135cc565b905092915050565b6000613632826133f8565b9050919050565b61364281613627565b811461364d57600080fd5b50565b60008135905061365f81613639565b92915050565b6000819050919050565b61367881613665565b811461368357600080fd5b50565b6000813590506136958161366f565b92915050565b600080604083850312156136b2576136b16133ee565b5b60006136c085828601613650565b92505060206136d185828601613686565b9150509250929050565b6000602082840312156136f1576136f06133ee565b5b60006136ff84828501613686565b91505092915050565b61371181613418565b82525050565b600060208201905061372c6000830184613708565b92915050565b60008060408385031215613749576137486133ee565b5b600061375785828601613441565b925050602061376885828601613686565b9150509250929050565b60008060006060848603121561378b5761378a6133ee565b5b600061379986828701613441565b93505060206137aa86828701613441565b92505060406137bb86828701613686565b9150509250925092565b6137ce81613665565b82525050565b60006020820190506137e960008301846137c5565b92915050565b6137f881613483565b811461380357600080fd5b50565b600081359050613815816137ef565b92915050565b600060208284031215613831576138306133ee565b5b600061383f84828501613806565b91505092915050565b600080fd5b600080fd5b7f4e487b7100000000000000000000000000000000000000000000000000000000600052604160045260246000fd5b61388a826135bb565b810181811067ffffffffffffffff821117156138a9576138a8613852565b5b80604052505050565b60006138bc6133e4565b90506138c88282613881565b919050565b600067ffffffffffffffff8211156138e8576138e7613852565b5b6138f1826135bb565b9050602081019050919050565b82818337600083830152505050565b600061392061391b846138cd565b6138b2565b90508281526020810184848401111561393c5761393b61384d565b5b6139478482856138fe565b509392505050565b600082601f83011261396457613963613848565b5b813561397484826020860161390d565b91505092915050565b600060208284031215613993576139926133ee565b5b600082013567ffffffffffffffff8111156139b1576139b06133f3565b5b6139bd8482850161394f565b91505092915050565b6000806000606084860312156139df576139de6133ee565b5b60006139ed86828701613441565b93505060206139fe86828701613686565b9250506040613a0f86828701613806565b9150509250925092565b613a228161353f565b8114613a2d57600080fd5b50565b600081359050613a3f81613a19565b92915050565b60008060408385031215613a5c57613a5b6133ee565b5b6000613a6a85828601613441565b9250506020613a7b85828601613a30565b9150509250929050565b600067ffffffffffffffff821115613aa057613a9f613852565b5b613aa9826135bb565b9050602081019050919050565b6000613ac9613ac484613a85565b6138b2565b905082815260208101848484011115613ae557613ae461384d565b5b613af08482856138fe565b509392505050565b600082601f830112613b0d57613b0c613848565b5b8135613b1d848260208601613ab6565b91505092915050565b60008060008060808587031215613b4057613b3f6133ee565b5b6000613b4e87828801613441565b9450506020613b5f87828801613441565b9350506040613b7087828801613686565b925050606085013567ffffffffffffffff811115613b9157613b906133f3565b5b613b9d87828801613af8565b91505092959194509250565b60008060408385031215613bc057613bbf6133ee565b5b6000613bce85828601613806565b9250506020613bdf85828601613806565b9150509250929050565b600060a082019050613bfe6000830188613708565b613c0b6020830187613708565b613c1860408301866137c5565b613c256060830185613490565b613c3260808301846137c5565b9695505050505050565b60008060408385031215613c5357613c526133ee565b5b6000613c6185828601613441565b9250506020613c7285828601613441565b9150509250929050565b7f4e487b7100000000000000000000000000000000000000000000000000000000600052602260045260246000fd5b60006002820490506001821680613cc357607f821691505b602082108103613cd657613cd5613c7c565b5b50919050565b7f43616e6e6f7420776974686472617720746f20746865207a65726f206164647260008201527f6573730000000000000000000000000000000000000000000000000000000000602082015250565b6000613d38602383613580565b9150613d4382613cdc565b604082019050919050565b60006020820190508181036000830152613d6781613d2b565b9050919050565b7f5769746864726177616c20616d6f756e74206d7573742062652067726561746560008201527f72207468616e207a65726f000000000000000000000000000000000000000000602082015250565b6000613dca602b83613580565b9150613dd582613d6e565b604082019050919050565b60006020820190508181036000830152613df981613dbd565b9050919050565b7f496e73756666696369656e7420636f6e747261637420726576656e756520666f60008201527f72207769746864726177616c0000000000000000000000000000000000000000602082015250565b6000613e5c602c83613580565b9150613e6782613e00565b604082019050919050565b60006020820190508181036000830152613e8b81613e4f565b9050919050565b7f4e487b7100000000000000000000000000000000000000000000000000000000600052601160045260246000fd5b6000613ecc82613665565b9150613ed783613665565b9250828203905081811115613eef57613eee613e92565b5b92915050565b600081905092915050565b50565b6000613f10600083613ef5565b9150613f1b82613f00565b600082019050919050565b6000613f3182613f03565b9150819050919050565b7f4661696c656420746f20776974686472617720436f6e7472616374526576656e60008201527f7565000000000000000000000000000000000000000000000000000000000000602082015250565b6000613f97602283613580565b9150613fa282613f3b565b604082019050919050565b60006020820190508181036000830152613fc681613f8a565b9050919050565b6000604082019050613fe260008301856137c5565b613fef60208301846137c5565b9392505050565b600060608201905061400b6000830186613708565b61401860208301856137c5565b6140256040830184613708565b949350505050565b7f43616c6c6572206973206e6f7420616e206f7267616e697a6174696f6e206f7260008201527f2077616c6c657420646f6573206e6f742065786973742e000000000000000000602082015250565b6000614089603783613580565b91506140948261402d565b604082019050919050565b600060208201905081810360008301526140b88161407c565b9050919050565b7f4f7065726174696f6e616c2070657263656e74206d757374206265206265747760008201527f65656e203020616e64203130302e000000000000000000000000000000000000602082015250565b600061411b602e83613580565b9150614126826140bf565b604082019050919050565b6000602082019050818103600083015261414a8161410e565b9050919050565b60006060820190506141666000830186613490565b6141736020830185613490565b61418060408301846137c5565b949350505050565b60008190508160005260206000209050919050565b60006020601f8301049050919050565b600082821b905092915050565b6000600883026141ea7fffffffffffffffffffffffffffffffffffffffffffffffffffffffffffffffff826141ad565b6141f486836141ad565b95508019841693508086168417925050509392505050565b6000819050919050565b600061423161422c61422784613665565b61420c565b613665565b9050919050565b6000819050919050565b61424b83614216565b61425f61425782614238565b8484546141ba565b825550505050565b600090565b614274614267565b61427f818484614242565b505050565b5b818110156142a35761429860008261426c565b600181019050614285565b5050565b601f8211156142e8576142b981614188565b6142c28461419d565b810160208510156142d1578190505b6142e56142dd8561419d565b830182614284565b50505b505050565b600082821c905092915050565b600061430b600019846008026142ed565b1980831691505092915050565b600061432483836142fa565b9150826002028217905092915050565b61433d82613575565b67ffffffffffffffff81111561435657614355613852565b5b6143608254613cab565b61436b8282856142a7565b600060209050601f83116001811461439e576000841561438c578287015190505b6143968582614318565b8655506143fe565b601f1984166143ac86614188565b60005b828110156143d4578489015182556001820191506020850194506020810190506143af565b868310156143f157848901516143ed601f8916826142fa565b8355505b6001600288020188555050505b505050505050565b7f43616e6e6f7420646f6e61746520746f20796f757273656c6600000000000000600082015250565b600061443c601983613580565b915061444782614406565b602082019050919050565b6000602082019050818103600083015261446b8161442f565b9050919050565b7f54686520646f6e6174696f6e20616d6f756e74206d757374206265206772656160008201527f746572207468616e20746865207a65726f000000000000000000000000000000602082015250565b60006144ce603183613580565b91506144d982614472565b604082019050919050565b600060208201905081810360008301526144fd816144c1565b9050919050565b7f496e73756666696369656e742062616c616e636520666f7220646f6e61746500600082015250565b600061453a601f83613580565b915061454582614504565b602082019050919050565b600060208201905081810360008301526145698161452d565b9050919050565b7f496e76616c696420646f6e6f722077616c6c6574207479706500000000000000600082015250565b60006145a6601983613580565b91506145b182614570565b602082019050919050565b600060208201905081810360008301526145d581614599565b9050919050565b7f496e76616c69642072656365697665722077616c6c6574207479706500000000600082015250565b6000614612601c83613580565b915061461d826145dc565b602082019050919050565b6000602082019050818103600083015261464181614605565b9050919050565b7f496e76616c696420646f6e6174696f6e20747970650000000000000000000000600082015250565b600061467e601583613580565b915061468982614648565b602082019050919050565b600060208201905081810360008301526146ad81614671565b9050919050565b7f4f7065726174696f6e616c2070657263656e7420686173206368616e6765642060008201527f73696e636520796f75207669657765642069742e000000000000000000000000602082015250565b6000614710603483613580565b915061471b826146b4565b604082019050919050565b6000602082019050818103600083015261473f81614703565b9050919050565b600061475182613665565b915061475c83613665565b925082820261476a81613665565b9150828204841483151761478157614780613e92565b5b5092915050565b7f4e487b7100000000000000000000000000000000000000000000000000000000600052601260045260246000fd5b60006147c282613665565b91506147cd83613665565b9250826147dd576147dc614788565b5b828204905092915050565b60006147f382613665565b91506147fe83613665565b925082820190508082111561481657614815613e92565b5b92915050565b600060608201905061483160008301866137c5565b61483e6020830185613490565b61484b60408301846137c5565b949350505050565b7f496e76616c69642077616c6c6574207479706500000000000000000000000000600082015250565b6000614889601383613580565b915061489482614853565b602082019050919050565b600060208201905081810360008301526148b88161487c565b9050919050565b7f496e73756666696369656e742062616c616e636520666f72207769746864726160008201527f77616c0000000000000000000000000000000000000000000000000000000000602082015250565b600061491b602383613580565b9150614926826148bf565b604082019050919050565b6000602082019050818103600083015261494a8161490e565b9050919050565b7f496e73756666696369656e74206f7065726174696f6e616c2066756e6473206660008201527f6f72207769746864726177616c00000000000000000000000000000000000000602082015250565b60006149ad602d83613580565b91506149b882614951565b604082019050919050565b600060208201905081810360008301526149dc816149a0565b9050919050565b7f4661696c656420746f2077697468647261770000000000000000000000000000600082015250565b6000614a19601283613580565b9150614a24826149e3565b602082019050919050565b60006020820190508181036000830152614a4881614a0c565b9050919050565b7f57616c6c657420616c72656164792065786973747320666f722074686973206160008201527f6464726573730000000000000000000000000000000000000000000000000000602082015250565b6000614aab602683613580565b9150614ab682614a4f565b604082019050919050565b60006020820190508181036000830152614ada81614a9e565b9050919050565b7f6261736520555249206e6f742073657400000000000000000000000000000000600082015250565b6000614b17601083613580565b9150614b2282614ae1565b602082019050919050565b60006020820190508181036000830152614b4681614b0a565b9050919050565b7f55524920717565727920666f72206e6f6e6578697374656e7420746f6b656e00600082015250565b6000614b83601f83613580565b9150614b8e82614b4d565b602082019050919050565b60006020820190508181036000830152614bb281614b76565b9050919050565b600081905092915050565b6000614bcf82613575565b614bd98185614bb9565b9350614be9818560208601613591565b80840191505092915050565b6000614c018285614bc4565b9150614c0d8284614bc4565b91508190509392505050565b7f57616c6c657420646f6573206e6f742065786973742e20506c6561736520637260008201527f6561746520612077616c6c657420666972737400000000000000000000000000602082015250565b6000614c75603383613580565b9150614c8082614c19565b604082019050919050565b60006020820190508181036000830152614ca481614c68565b9050919050565b7f4465706f73697420616d6f756e74206d7573742062652067726561746572207460008201527f68616e207a65726f000000000000000000000000000000000000000000000000602082015250565b6000614d07602883613580565b9150614d1282614cab565b604082019050919050565b60006020820190508181036000830152614d3681614cfa565b9050919050565b6000614d4882613665565b91507fffffffffffffffffffffffffffffffffffffffffffffffffffffffffffffffff8203614d7a57614d79613e92565b5b600182019050919050565b600081519050919050565b600082825260208201905092915050565b6000614dac82614d85565b614db68185614d90565b9350614dc6818560208601613591565b614dcf816135bb565b840191505092915050565b6000608082019050614def6000830187613708565b614dfc6020830186613708565b614e0960408301856137c5565b8181036060830152614e1b8184614da1565b905095945050505050565b600081519050614e35816134e6565b92915050565b600060208284031215614e5157614e506133ee565b5b6000614e5f84828501614e26565b91505092915050565b6000604082019050614e7d6000830185613708565b614e8a60208301846137c5565b939250505056fea264697066735822122039af1a111d5c9ccd7bbf5c512f100e15bb647d07cf54d5b90abbef4db5632bd164736f6c63430008140033",
  "linkReferences": {},
  "deployedLinkReferences": {}
}